{
    "contractName": "Executor",
    "abi": [
        {
            "inputs": [
                {
                    "internalType": "address[]",
                    "name": "_from",
                    "type": "address[]"
                },
                {
                    "components": [
                        {
                            "internalType": "address",
                            "name": "token",
                            "type": "address"
                        },
                        {
                            "internalType": "address",
                            "name": "to",
                            "type": "address"
                        },
                        {
                            "internalType": "uint256",
                            "name": "amount",
                            "type": "uint256"
                        },
                        {
                            "internalType": "bytes32",
                            "name": "sigMes",
                            "type": "bytes32"
                        }
                    ],
                    "internalType": "struct Executor.MicroTx[]",
                    "name": "_MicroTX",
                    "type": "tuple[]"
                },
                {
                    "components": [
                        {
                            "internalType": "uint8",
                            "name": "v",
                            "type": "uint8"
                        },
                        {
                            "internalType": "bytes32",
                            "name": "r",
                            "type": "bytes32"
                        },
                        {
                            "internalType": "bytes32",
                            "name": "s",
                            "type": "bytes32"
                        }
                    ],
                    "internalType": "struct SubAccount.Sign[]",
                    "name": "_Sign",
                    "type": "tuple[]"
                }
            ],
            "name": "multiCall",
            "outputs": [
                {
                    "internalType": "bool",
                    "name": "",
                    "type": "bool"
                }
            ],
            "stateMutability": "nonpayable",
            "type": "function"
        }
    ],
    "bytecode": "608060405234801561001057600080fd5b50610618806100206000396000f3fe608060405234801561001057600080fd5b506004361061002b5760003560e01c8063822d802d14610030575b600080fd5b61004361003e3660046103e7565b610057565b604051901515815260200160405180910390f35b60006001815b845181101561026d57600084828151811061008857634e487b7160e01b600052603260045260246000fd5b6020026020010151905060006307f1384360e01b8784815181106100bc57634e487b7160e01b600052603260045260246000fd5b6020026020010151600001518885815181106100e857634e487b7160e01b600052603260045260246000fd5b60200260200101516020015189868151811061011457634e487b7160e01b600052603260045260246000fd5b6020026020010151604001518a878151811061014057634e487b7160e01b600052603260045260246000fd5b60209081029190910181015160600151604080516001600160a01b03968716602482015295909416604486015260648501929092526084840191909152855160ff1660a484015285015160c483015284015160e482015261010401604051602081830303815290604052906001600160e01b0319166020820180516001600160e01b038381831617835250505050905060008884815181106101f257634e487b7160e01b600052603260045260246000fd5b60200260200101516001600160a01b03168260405161021191906104cb565b6000604051808303816000865af19150503d806000811461024e576040519150601f19603f3d011682016040523d82523d6000602084013e610253565b606091505b505090505050508080610265906105a5565b91505061005d565b50949350505050565b80356001600160a01b038116811461028d57600080fd5b919050565b600082601f8301126102a2578081fd5b813560206102b76102b283610581565b610550565b80838252828201915082860187848660071b89010111156102d6578586fd5b855b8581101561033857608080838b0312156102f0578788fd5b6102f8610504565b61030184610276565b815261030e878501610276565b818801526040848101359082015260608085013590820152855293850193909101906001016102d8565b5090979650505050505050565b600082601f830112610355578081fd5b813560206103656102b283610581565b82815281810190858301606080860288018501891015610383578687fd5b865b868110156103d95781838b03121561039b578788fd5b6103a361052d565b833560ff811681146103b357898afd5b815283870135878201526040808501359082015285529385019391810191600101610385565b509198975050505050505050565b6000806000606084860312156103fb578283fd5b833567ffffffffffffffff80821115610412578485fd5b818601915086601f830112610425578485fd5b813560206104356102b283610581565b8083825282820191508286018b848660051b890101111561045457898afd5b8996505b8487101561047d5761046981610276565b835260019690960195918301918301610458565b5097505087013592505080821115610493578384fd5b61049f87838801610292565b935060408601359150808211156104b4578283fd5b506104c186828701610345565b9150509250925092565b60008251815b818110156104eb57602081860181015185830152016104d1565b818111156104f95782828501525b509190910192915050565b6040516080810167ffffffffffffffff81118282101715610527576105276105cc565b60405290565b6040516060810167ffffffffffffffff81118282101715610527576105276105cc565b604051601f8201601f1916810167ffffffffffffffff81118282101715610579576105796105cc565b604052919050565b600067ffffffffffffffff82111561059b5761059b6105cc565b5060051b60200190565b60006000198214156105c557634e487b7160e01b81526011600452602481fd5b5060010190565b634e487b7160e01b600052604160045260246000fdfea264697066735822122075e66d9be85764a04753fd12fff880544ba3dd9dd7b000f235b08f2964d0c62e64736f6c63430008040033",
    "sourcePath": "/home/puru/aip/DEX/contracts/Executor.sol",
    "compiler": {
        "name": "solc",
        "version": "0.8.4+commit.c7e474f2"
    },
    "functionHashes": {
        "multiCall(address[],(address,address,uint256,bytes32)[],(uint8,bytes32,bytes32)[])": "822d802d"
    },
    "gasEstimates": {
        "creation": {
            "codeDepositCost": "312000",
            "executionCost": "349",
            "totalCost": "312349"
        },
        "external": {
            "multiCall(address[],(address,address,uint256,bytes32)[],(uint8,bytes32,bytes32)[])": "infinite"
        }
    }
}