{
    "contractName": "SubAccount",
    "abi": [
        {
            "inputs": [
                {
                    "internalType": "address",
                    "name": "_owner",
                    "type": "address"
                }
            ],
            "stateMutability": "nonpayable",
            "type": "constructor"
        },
        {
            "anonymous": false,
            "inputs": [
                {
                    "indexed": false,
                    "internalType": "bytes32",
                    "name": "msgHash",
                    "type": "bytes32"
                },
                {
                    "indexed": false,
                    "internalType": "uint8",
                    "name": "v",
                    "type": "uint8"
                },
                {
                    "indexed": false,
                    "internalType": "bytes32",
                    "name": "r",
                    "type": "bytes32"
                },
                {
                    "indexed": false,
                    "internalType": "bytes32",
                    "name": "s",
                    "type": "bytes32"
                }
            ],
            "name": "CheckParams",
            "type": "event"
        },
        {
            "anonymous": false,
            "inputs": [
                {
                    "indexed": false,
                    "internalType": "uint8",
                    "name": "version",
                    "type": "uint8"
                }
            ],
            "name": "Initialized",
            "type": "event"
        },
        {
            "anonymous": false,
            "inputs": [
                {
                    "indexed": false,
                    "internalType": "address",
                    "name": "token",
                    "type": "address"
                },
                {
                    "indexed": false,
                    "internalType": "address",
                    "name": "to",
                    "type": "address"
                },
                {
                    "indexed": false,
                    "internalType": "uint256",
                    "name": "amount",
                    "type": "uint256"
                }
            ],
            "name": "TransferToken",
            "type": "event"
        },
        {
            "anonymous": false,
            "inputs": [
                {
                    "indexed": false,
                    "internalType": "address",
                    "name": "token",
                    "type": "address"
                },
                {
                    "indexed": false,
                    "internalType": "address",
                    "name": "to",
                    "type": "address"
                },
                {
                    "indexed": false,
                    "internalType": "uint256",
                    "name": "amount",
                    "type": "uint256"
                }
            ],
            "name": "WithdrawToken",
            "type": "event"
        },
        {
            "inputs": [
                {
                    "internalType": "bytes32",
                    "name": "_hashedMessage",
                    "type": "bytes32"
                },
                {
                    "internalType": "uint8",
                    "name": "_v",
                    "type": "uint8"
                },
                {
                    "internalType": "bytes32",
                    "name": "_r",
                    "type": "bytes32"
                },
                {
                    "internalType": "bytes32",
                    "name": "_s",
                    "type": "bytes32"
                }
            ],
            "name": "VerifyMessage",
            "outputs": [
                {
                    "internalType": "address",
                    "name": "",
                    "type": "address"
                }
            ],
            "stateMutability": "pure",
            "type": "function"
        },
        {
            "inputs": [
                {
                    "internalType": "bytes32",
                    "name": "_hashedMessage",
                    "type": "bytes32"
                },
                {
                    "internalType": "uint8",
                    "name": "_v",
                    "type": "uint8"
                },
                {
                    "internalType": "bytes32",
                    "name": "_r",
                    "type": "bytes32"
                },
                {
                    "internalType": "bytes32",
                    "name": "_s",
                    "type": "bytes32"
                }
            ],
            "name": "VerifyMessage_check_params",
            "outputs": [],
            "stateMutability": "nonpayable",
            "type": "function"
        },
        {
            "inputs": [
                {
                    "internalType": "bytes32",
                    "name": "_hashedMessage",
                    "type": "bytes32"
                },
                {
                    "internalType": "uint8",
                    "name": "_v",
                    "type": "uint8"
                },
                {
                    "internalType": "bytes32",
                    "name": "_r",
                    "type": "bytes32"
                },
                {
                    "internalType": "bytes32",
                    "name": "_s",
                    "type": "bytes32"
                }
            ],
            "name": "VerifyMessage_prefix",
            "outputs": [
                {
                    "internalType": "address",
                    "name": "",
                    "type": "address"
                }
            ],
            "stateMutability": "pure",
            "type": "function"
        },
        {
            "inputs": [
                {
                    "internalType": "address",
                    "name": "_token",
                    "type": "address"
                },
                {
                    "internalType": "uint256",
                    "name": "_tokenAmount",
                    "type": "uint256"
                }
            ],
            "name": "deposit",
            "outputs": [],
            "stateMutability": "nonpayable",
            "type": "function"
        },
        {
            "inputs": [
                {
                    "internalType": "address",
                    "name": "_token",
                    "type": "address"
                },
                {
                    "internalType": "address",
                    "name": "_to",
                    "type": "address"
                },
                {
                    "internalType": "uint256",
                    "name": "_amount",
                    "type": "uint256"
                },
                {
                    "internalType": "bytes32",
                    "name": "_sigMes",
                    "type": "bytes32"
                },
                {
                    "components": [
                        {
                            "internalType": "uint8",
                            "name": "v",
                            "type": "uint8"
                        },
                        {
                            "internalType": "bytes32",
                            "name": "r",
                            "type": "bytes32"
                        },
                        {
                            "internalType": "bytes32",
                            "name": "s",
                            "type": "bytes32"
                        }
                    ],
                    "internalType": "struct SubAccount.Sign",
                    "name": "sign",
                    "type": "tuple"
                }
            ],
            "name": "execute",
            "outputs": [],
            "stateMutability": "nonpayable",
            "type": "function"
        },
        {
            "inputs": [
                {
                    "internalType": "address",
                    "name": "_token",
                    "type": "address"
                }
            ],
            "name": "getBalanceOfSingleToken",
            "outputs": [
                {
                    "internalType": "uint256",
                    "name": "balance",
                    "type": "uint256"
                }
            ],
            "stateMutability": "view",
            "type": "function"
        },
        {
            "inputs": [
                {
                    "internalType": "address",
                    "name": "_token",
                    "type": "address"
                },
                {
                    "internalType": "uint256",
                    "name": "_locktime",
                    "type": "uint256"
                }
            ],
            "name": "lock",
            "outputs": [],
            "stateMutability": "nonpayable",
            "type": "function"
        },
        {
            "inputs": [],
            "name": "maxlocktime",
            "outputs": [
                {
                    "internalType": "uint256",
                    "name": "",
                    "type": "uint256"
                }
            ],
            "stateMutability": "view",
            "type": "function"
        },
        {
            "inputs": [],
            "name": "minlocktime",
            "outputs": [
                {
                    "internalType": "uint256",
                    "name": "",
                    "type": "uint256"
                }
            ],
            "stateMutability": "view",
            "type": "function"
        },
        {
            "inputs": [],
            "name": "owner",
            "outputs": [
                {
                    "internalType": "address",
                    "name": "",
                    "type": "address"
                }
            ],
            "stateMutability": "view",
            "type": "function"
        },
        {
            "inputs": [
                {
                    "internalType": "address",
                    "name": "_token",
                    "type": "address"
                }
            ],
            "name": "setBalanceOfSingleToken",
            "outputs": [],
            "stateMutability": "nonpayable",
            "type": "function"
        },
        {
            "inputs": [
                {
                    "internalType": "address",
                    "name": "_token",
                    "type": "address"
                },
                {
                    "internalType": "address",
                    "name": "_to",
                    "type": "address"
                },
                {
                    "internalType": "uint256",
                    "name": "_amount",
                    "type": "uint256"
                }
            ],
            "name": "withdraw",
            "outputs": [],
            "stateMutability": "nonpayable",
            "type": "function"
        }
    ],
    "bytecode": "60806040526064600455620186a060055534801561001c57600080fd5b50604051610c05380380610c0583398101604081905261003b91610060565b600380546001600160a01b0319166001600160a01b039290921691909117905561008e565b600060208284031215610071578081fd5b81516001600160a01b0381168114610087578182fd5b9392505050565b610b688061009d6000396000f3fe608060405234801561001057600080fd5b50600436106100b45760003560e01c80638da5cb5b116100715780638da5cb5b1461014e578063918f8ad514610161578063d4a20b071461018a578063d8ef259714610193578063d9caed12146101a6578063e1a1875f146101b957600080fd5b806307f13843146100b9578063282d3fdf146100ce57806345b96f08146100e157806347e7ef24146100f4578063659934c11461010757806367c1140f14610137575b600080fd5b6100cc6100c7366004610985565b6101cc565b005b6100cc6100dc366004610a34565b61031b565b6100cc6100ef366004610929565b610467565b6100cc610102366004610a34565b610504565b61011a610115366004610a7d565b6105de565b6040516001600160a01b0390911681526020015b60405180910390f35b61014060045481565b60405190815260200161012e565b60035461011a906001600160a01b031681565b61014061016f366004610929565b6001600160a01b031660009081526001602052604090205490565b61014060055481565b61011a6101a1366004610a7d565b610649565b6100cc6101b436600461094a565b61071b565b6100cc6101c7366004610a7d565b6108ac565b60035481516020830151604084015188936001600160a01b0316926101f29287926105de565b6001600160a01b0316146102455760405162461bcd60e51b8152602060048201526015602482015274566572696669636174696f6e206661696c6564212160581b60448201526064015b60405180910390fd5b60405163a9059cbb60e01b81526001600160a01b0386811660048301526024820186905282169063a9059cbb90604401602060405180830381600087803b15801561028f57600080fd5b505af11580156102a3573d6000803e3d6000fd5b505050506040513d601f19601f820116820180604052508101906102c79190610a5d565b50604080516001600160a01b038089168252871660208201529081018590527f3844b7075ed6e7d4b61342769cb2b1b325cba410a62932affaa90aee247dadf59060600160405180910390a1505050505050565b6003546001600160a01b0316331461036d5760405162461bcd60e51b81526020600482015260156024820152742ca7aa9020a922902727aa102a24229027aba722a960591b604482015260640161023c565b60045481116103d25760405162461bcd60e51b815260206004820152602b60248201527f6d696e206c6f636b74696d652073686f756c64206265206d6f7265207468616e60448201526a2031303020626c6f636b7360a81b606482015260840161023c565b600554811061043b5760405162461bcd60e51b815260206004820152602f60248201527f6d6178206c6f636b74696d652073686f756c64206265206c657373207468616e60448201526e203130305f30303020626c6f636b7360881b606482015260840161023c565b436104468282610b0e565b6001600160a01b039093166000908152600260205260409020929092555050565b6040516370a0823160e01b815230600482015281906000906001600160a01b038316906370a082319060240160206040518083038186803b1580156104ab57600080fd5b505afa1580156104bf573d6000803e3d6000fd5b505050506040513d601f19601f820116820180604052508101906104e39190610ab7565b6001600160a01b039093166000908152600160205260409020929092555050565b60405163a9059cbb60e01b81523060048201526024810182905282906001600160a01b0382169063a9059cbb90604401602060405180830381600087803b15801561054e57600080fd5b505af1158015610562573d6000803e3d6000fd5b505050506040513d601f19601f820116820180604052508101906105869190610a5d565b50604080516001600160a01b03851681523060208201529081018390527f3844b7075ed6e7d4b61342769cb2b1b325cba410a62932affaa90aee247dadf59060600160405180910390a16105d983610467565b505050565b6040805160008082526020820180845287905260ff8616928201929092526060810184905260808101839052819060019060a0016020604051602081039080840390855afa158015610634573d6000803e3d6000fd5b5050604051601f190151979650505050505050565b6000806040518060400160405280601c81526020017f19457468657265756d205369676e6564204d6573736167653a0a333200000000815250905060008187604051602001610699929190610acf565b60408051601f198184030181528282528051602091820120600080855291840180845281905260ff8a169284019290925260608301889052608083018790529092509060019060a0016020604051602081039080840390855afa158015610704573d6000803e3d6000fd5b5050604051601f1901519998505050505050505050565b6003546001600160a01b0316331461076d5760405162461bcd60e51b81526020600482015260156024820152742ca7aa9020a922902727aa102a24229027aba722a960591b604482015260640161023c565b6001600160a01b0383166000908152600260205260409020548390439081116107ce5760405162461bcd60e51b81526020600482015260136024820152721d1bdad95b9cc81cdd1a5b1b081b1bd8dad959606a1b604482015260640161023c565b60405163a9059cbb60e01b81526001600160a01b0385811660048301526024820185905283169063a9059cbb90604401602060405180830381600087803b15801561081857600080fd5b505af115801561082c573d6000803e3d6000fd5b505050506040513d601f19601f820116820180604052508101906108509190610a5d565b5061085a85610467565b604080516001600160a01b038088168252861660208201529081018490527f037238854fe57fbf51f09946f854fc3916fe83938d6521f09bd05463839f13049060600160405180910390a15050505050565b6040805185815260ff85166020820152908101839052606081018290527f8e9f65bdaaa380a96990cb036df4235d04ffa939497c8b88aaadd4a832a2f4a79060800160405180910390a150505050565b80356001600160a01b038116811461091357600080fd5b919050565b803560ff8116811461091357600080fd5b60006020828403121561093a578081fd5b610943826108fc565b9392505050565b60008060006060848603121561095e578182fd5b610967846108fc565b9250610975602085016108fc565b9150604084013590509250925092565b600080600080600085870360e081121561099d578182fd5b6109a6876108fc565b95506109b4602088016108fc565b9450604087013593506060808801359350607f19820112156109d4578182fd5b506040516060810181811067ffffffffffffffff82111715610a0457634e487b7160e01b83526041600452602483fd5b604052610a1360808801610918565b815260a0870135602082015260c09096013560408701525092959194509290565b60008060408385031215610a46578182fd5b610a4f836108fc565b946020939093013593505050565b600060208284031215610a6e578081fd5b81518015158114610943578182fd5b60008060008060808587031215610a92578384fd5b84359350610aa260208601610918565b93969395505050506040820135916060013590565b600060208284031215610ac8578081fd5b5051919050565b60008351815b81811015610aef5760208187018101518583015201610ad5565b81811115610afd5782828501525b509190910191825250602001919050565b60008219821115610b2d57634e487b7160e01b81526011600452602481fd5b50019056fea26469706673582212201b62a76aed444e76ab7fc84114bc9247c29213fdfb6f53cb4dab93e2cfa044c064736f6c63430008040033",
    "sourcePath": "/home/puru/aip/DEX/contracts/SubAccount.sol",
    "compiler": {
        "name": "solc",
        "version": "0.8.4+commit.c7e474f2"
    },
    "functionHashes": {
        "VerifyMessage(bytes32,uint8,bytes32,bytes32)": "659934c1",
        "VerifyMessage_check_params(bytes32,uint8,bytes32,bytes32)": "e1a1875f",
        "VerifyMessage_prefix(bytes32,uint8,bytes32,bytes32)": "d8ef2597",
        "deposit(address,uint256)": "47e7ef24",
        "execute(address,address,uint256,bytes32,(uint8,bytes32,bytes32))": "07f13843",
        "getBalanceOfSingleToken(address)": "918f8ad5",
        "lock(address,uint256)": "282d3fdf",
        "maxlocktime()": "d4a20b07",
        "minlocktime()": "67c1140f",
        "owner()": "8da5cb5b",
        "setBalanceOfSingleToken(address)": "45b96f08",
        "withdraw(address,address,uint256)": "d9caed12"
    },
    "gasEstimates": {
        "creation": {
            "codeDepositCost": "584000",
            "executionCost": "infinite",
            "totalCost": "infinite"
        },
        "external": {
            "VerifyMessage(bytes32,uint8,bytes32,bytes32)": "infinite",
            "VerifyMessage_check_params(bytes32,uint8,bytes32,bytes32)": "2363",
            "VerifyMessage_prefix(bytes32,uint8,bytes32,bytes32)": "infinite",
            "deposit(address,uint256)": "infinite",
            "execute(address,address,uint256,bytes32,(uint8,bytes32,bytes32))": "infinite",
            "getBalanceOfSingleToken(address)": "1259",
            "lock(address,uint256)": "23010",
            "maxlocktime()": "1039",
            "minlocktime()": "1106",
            "owner()": "1026",
            "setBalanceOfSingleToken(address)": "infinite",
            "withdraw(address,address,uint256)": "infinite"
        }
    }
}