{
    "contractName": "FeeContract",
    "abi": [
        {
            "anonymous": false,
            "inputs": [
                {
                    "indexed": true,
                    "internalType": "address",
                    "name": "previousOwner",
                    "type": "address"
                },
                {
                    "indexed": true,
                    "internalType": "address",
                    "name": "newOwner",
                    "type": "address"
                }
            ],
            "name": "OwnershipTransferred",
            "type": "event"
        },
        {
            "inputs": [
                {
                    "internalType": "uint256",
                    "name": "_initialFee",
                    "type": "uint256"
                }
            ],
            "name": "changeFee",
            "outputs": [],
            "stateMutability": "nonpayable",
            "type": "function"
        },
        {
            "inputs": [],
            "name": "initialFee",
            "outputs": [
                {
                    "internalType": "uint256",
                    "name": "",
                    "type": "uint256"
                }
            ],
            "stateMutability": "view",
            "type": "function"
        },
        {
            "inputs": [],
            "name": "owner",
            "outputs": [
                {
                    "internalType": "address",
                    "name": "",
                    "type": "address"
                }
            ],
            "stateMutability": "view",
            "type": "function"
        },
        {
            "inputs": [
                {
                    "internalType": "address",
                    "name": "",
                    "type": "address"
                }
            ],
            "name": "paidFee",
            "outputs": [
                {
                    "internalType": "bool",
                    "name": "",
                    "type": "bool"
                }
            ],
            "stateMutability": "view",
            "type": "function"
        },
        {
            "inputs": [],
            "name": "pay",
            "outputs": [],
            "stateMutability": "payable",
            "type": "function"
        },
        {
            "inputs": [],
            "name": "renounceOwnership",
            "outputs": [],
            "stateMutability": "nonpayable",
            "type": "function"
        },
        {
            "inputs": [
                {
                    "internalType": "address",
                    "name": "newOwner",
                    "type": "address"
                }
            ],
            "name": "transferOwnership",
            "outputs": [],
            "stateMutability": "nonpayable",
            "type": "function"
        }
    ],
    "bytecode": "608060405234801561001057600080fd5b5061001a3361001f565b61006f565b600080546001600160a01b038381166001600160a01b0319831681178455604051919092169283917f8be0079c531659141344cd1fd0a4f28419497f9722a3daafe3b4186f6b6457e09190a35050565b6104538061007e6000396000f3fe6080604052600436106100705760003560e01c8063715018a61161004e578063715018a6146100e45780638da5cb5b146100f95780639c00316e14610121578063f2fde38b1461014557600080fd5b80631b9265b814610075578063591a726f1461007f5780636a1db1bf146100c4575b600080fd5b61007d610165565b005b34801561008b57600080fd5b506100af61009a3660046103b4565b60026020526000908152604090205460ff1681565b60405190151581526020015b60405180910390f35b3480156100d057600080fd5b5061007d6100df3660046103e2565b610270565b3480156100f057600080fd5b5061007d61027d565b34801561010557600080fd5b506000546040516001600160a01b0390911681526020016100bb565b34801561012d57600080fd5b5061013760015481565b6040519081526020016100bb565b34801561015157600080fd5b5061007d6101603660046103b4565b610291565b33600081815260026020526040902054349060ff161515600114156101be5760405162461bcd60e51b81526004016101b5906020808252600490820152630473030360e41b604082015260600190565b60405180910390fd5b6001548110156101f95760405162461bcd60e51b81526004016101b5906020808252600490820152634730303160e01b604082015260600190565b6001600160a01b0382166000908152600260205260409020805460ff191660019081179091555481111561026c57816001600160a01b03166108fc6001548361024291906103fa565b6040518115909202916000818181858888f1935050505015801561026a573d6000803e3d6000fd5b505b5050565b61027861030a565b600155565b61028561030a565b61028f6000610364565b565b61029961030a565b6001600160a01b0381166102fe5760405162461bcd60e51b815260206004820152602660248201527f4f776e61626c653a206e6577206f776e657220697320746865207a65726f206160448201526564647265737360d01b60648201526084016101b5565b61030781610364565b50565b6000546001600160a01b0316331461028f5760405162461bcd60e51b815260206004820181905260248201527f4f776e61626c653a2063616c6c6572206973206e6f7420746865206f776e657260448201526064016101b5565b600080546001600160a01b038381166001600160a01b0319831681178455604051919092169283917f8be0079c531659141344cd1fd0a4f28419497f9722a3daafe3b4186f6b6457e09190a35050565b6000602082840312156103c5578081fd5b81356001600160a01b03811681146103db578182fd5b9392505050565b6000602082840312156103f3578081fd5b5035919050565b60008282101561041857634e487b7160e01b81526011600452602481fd5b50039056fea2646970667358221220822b60d75a55911315fcd4ba85947db1d3c4da2833c8c95610d606e74d6ff1e664736f6c63430008040033",
    "sourcePath": "/home/puru/aip/DEX/contracts/graphite/FeeContract.sol",
    "compiler": {
        "name": "solc",
        "version": "0.8.4+commit.c7e474f2"
    },
    "functionHashes": {
        "changeFee(uint256)": "6a1db1bf",
        "initialFee()": "9c00316e",
        "owner()": "8da5cb5b",
        "paidFee(address)": "591a726f",
        "pay()": "1b9265b8",
        "renounceOwnership()": "715018a6",
        "transferOwnership(address)": "f2fde38b"
    },
    "gasEstimates": {
        "creation": {
            "codeDepositCost": "221400",
            "executionCost": "22704",
            "totalCost": "244104"
        },
        "external": {
            "changeFee(uint256)": "21133",
            "initialFee()": "1039",
            "owner()": "1023",
            "paidFee(address)": "1208",
            "pay()": "infinite",
            "renounceOwnership()": "infinite",
            "transferOwnership(address)": "23664"
        }
    }
}